{
  "contractName": "Actions",
  "abi": [
    {
      "constant": false,
      "inputs": [
        {
          "name": "_action_id",
          "type": "uint256"
        },
        {
          "name": "_dataHash",
          "type": "uint256"
        }
      ],
      "name": "addAction",
      "outputs": [],
      "payable": false,
      "stateMutability": "nonpayable",
      "type": "function",
      "signature": "0x42cc69bf"
    },
    {
      "constant": true,
      "inputs": [],
      "name": "getVar",
      "outputs": [
        {
          "name": "",
          "type": "uint256"
        }
      ],
      "payable": false,
      "stateMutability": "view",
      "type": "function",
      "signature": "0x477a5c98"
    },
    {
      "constant": true,
      "inputs": [
        {
          "name": "_action_id",
          "type": "uint256"
        }
      ],
      "name": "getHash",
      "outputs": [
        {
          "name": "",
          "type": "uint256"
        }
      ],
      "payable": false,
      "stateMutability": "view",
      "type": "function",
      "signature": "0x6b2fafa9"
    },
    {
      "constant": true,
      "inputs": [],
      "name": "getActionsCount",
      "outputs": [
        {
          "name": "",
          "type": "uint256"
        }
      ],
      "payable": false,
      "stateMutability": "view",
      "type": "function",
      "signature": "0x80ba4b75"
    },
    {
      "constant": true,
      "inputs": [
        {
          "name": "index",
          "type": "uint256"
        }
      ],
      "name": "getActions",
      "outputs": [
        {
          "name": "",
          "type": "uint256"
        },
        {
          "name": "",
          "type": "uint256"
        }
      ],
      "payable": false,
      "stateMutability": "view",
      "type": "function",
      "signature": "0x328dd982"
    }
  ],
  "bytecode": "0x6080604052600560035534801561001557600080fd5b50610310806100256000396000f3fe60806040526004361061006d576000357c0100000000000000000000000000000000000000000000000000000000900463ffffffff168063328dd9821461007257806342cc69bf146100c8578063477a5c981461010d5780636b2fafa91461013857806380ba4b7514610187575b600080fd5b34801561007e57600080fd5b506100ab6004803603602081101561009557600080fd5b81019080803590602001909291905050506101b2565b604051808381526020018281526020019250505060405180910390f35b3480156100d457600080fd5b5061010b600480360360408110156100eb57600080fd5b8101908080359060200190929190803590602001909291905050506101f7565b005b34801561011957600080fd5b506101226102ae565b6040518082815260200191505060405180910390f35b34801561014457600080fd5b506101716004803603602081101561015b57600080fd5b81019080803590602001909291905050506102b8565b6040518082815260200191505060405180910390f35b34801561019357600080fd5b5061019c6102d7565b6040518082815260200191505060405180910390f35b60008060006002600185038154811015156101c957fe5b9060005260206000200154905080600080838152602001908152602001600020600101549250925050915091565b600015156001600084815260200190815260200160002060009054906101000a900460ff16151514151561022a57600080fd5b60008060008481526020019081526020016000209050828160000181905550818160010181905550600180600085815260200190815260200160002060006101000a81548160ff0219169083151502179055506002839080600181540180825580915050906001820390600052602060002001600090919290919091505550505050565b6000600354905090565b6000806000838152602001908152602001600020600101549050919050565b600060028054905090509056fea165627a7a7230582011b997ebb4ae27a4346572f8cee54952aa8b6e7010d0d517e77cb86f3b1dbd960029",
  "source": "pragma solidity ^0.5.0;\n\ncontract Actions {\n\n    struct Action {\n        uint action_id;\n        uint dataHash;\n    }\n\n    mapping (uint => Action) actions;\n    mapping (uint => bool) alreadyExisting;\n    uint[] actionArray;\n\n    // Creates a new action on the blockchain\n    function addAction(uint _action_id, uint _dataHash) public {\n        require(alreadyExisting[_action_id] == false);\n        Action storage newAction = actions[_action_id];\n        newAction.action_id = _action_id;\n        newAction.dataHash = _dataHash;\n        alreadyExisting[_action_id] = true;\n        actionArray.push(_action_id);\n    }\n\n    uint myVar = 5;\n\n    function getVar() public view returns (uint) {\n        return myVar;\n    }\n\n    // Return the hash corresponding to a action_id.\n    function getHash(uint _action_id) view public returns (uint) {\n        return actions[_action_id].dataHash;\n    }\n\n    // Returns the total number of actions \n    function getActionsCount() public view returns (uint) {\n        return actionArray.length;\n    }\n\n    // Returns the action_id and the dataHash of the index'th action that was added.\n    function getActions(uint index) view public returns (uint, uint) {\n        uint tempAction_id = actionArray[index - 1];\n        return (tempAction_id, actions[tempAction_id].dataHash);\n    }\n\n}\n\n",
  "sourcePath": "/home/felix/git/Bloodchain/truffle/contracts/Actions.sol",
  "compiler": {
    "name": "solc",
    "version": "0.5.0+commit.1d4f565a.Emscripten.clang"
  },
  "schemaVersion": "3.0.2",
  "updatedAt": "2019-02-14T16:01:26.649Z",
  "devdoc": {
    "methods": {}
  },
  "userdoc": {
    "methods": {}
  }
}