{
  "contractName": "ConsensusContract",
  "abi": [
    {
      "inputs": [],
      "payable": false,
      "stateMutability": "nonpayable",
      "type": "constructor",
      "signature": "constructor"
    },
    {
      "constant": false,
      "inputs": [
        {
          "name": "_patient_id",
          "type": "string"
        },
        {
          "name": "_keyhash",
          "type": "uint256"
        }
      ],
      "name": "createconsensus",
      "outputs": [],
      "payable": false,
      "stateMutability": "nonpayable",
      "type": "function",
      "signature": "0x88b44043"
    },
    {
      "constant": true,
      "inputs": [
        {
          "name": "_patient_id",
          "type": "string"
        }
      ],
      "name": "getconsensus",
      "outputs": [
        {
          "name": "",
          "type": "bool"
        },
        {
          "name": "",
          "type": "uint256"
        }
      ],
      "payable": false,
      "stateMutability": "view",
      "type": "function",
      "signature": "0x2bde90d7"
    },
    {
      "constant": false,
      "inputs": [
        {
          "name": "_patient_id",
          "type": "string"
        },
        {
          "name": "_key",
          "type": "string"
        }
      ],
      "name": "revokeconsensus",
      "outputs": [],
      "payable": false,
      "stateMutability": "nonpayable",
      "type": "function",
      "signature": "0x8d72ef68"
    }
  ],
  "bytecode": "0x608060405234801561001057600080fd5b50336000806101000a81548173ffffffffffffffffffffffffffffffffffffffff021916908373ffffffffffffffffffffffffffffffffffffffff160217905550610713806100606000396000f3fe608060405260043610610057576000357c0100000000000000000000000000000000000000000000000000000000900463ffffffff1680632bde90d71461005c57806388b44043146101435780638d72ef6814610215575b600080fd5b34801561006857600080fd5b506101226004803603602081101561007f57600080fd5b810190808035906020019064010000000081111561009c57600080fd5b8201836020820111156100ae57600080fd5b803590602001918460018302840111640100000000831117156100d057600080fd5b91908080601f016020809104026020016040519081016040528093929190818152602001838380828437600081840152601f19601f820116905080830192505050505050509192919290505050610374565b60405180831515151581526020018281526020019250505060405180910390f35b34801561014f57600080fd5b506102136004803603604081101561016657600080fd5b810190808035906020019064010000000081111561018357600080fd5b82018360208201111561019557600080fd5b803590602001918460018302840111640100000000831117156101b757600080fd5b91908080601f016020809104026020016040519081016040528093929190818152602001838380828437600081840152601f19601f8201169050808301925050505050505091929192908035906020019092919050505061046b565b005b34801561022157600080fd5b506103726004803603604081101561023857600080fd5b810190808035906020019064010000000081111561025557600080fd5b82018360208201111561026757600080fd5b8035906020019184600183028401116401000000008311171561028957600080fd5b91908080601f016020809104026020016040519081016040528093929190818152602001838380828437600081840152601f19601f820116905080830192505050505050509192919290803590602001906401000000008111156102ec57600080fd5b8201836020820111156102fe57600080fd5b8035906020019184600183028401116401000000008311171561032057600080fd5b91908080601f016020809104026020016040519081016040528093929190818152602001838380828437600081840152601f19601f820116905080830192505050505050509192919290505050610569565b005b6000806001836040518082805190602001908083835b6020831015156103af578051825260208201915060208101905060208303925061038a565b6001836020036101000a038019825116818451168082178552505050505050905001915050908152602001604051809103902060000160009054906101000a900460ff166001846040518082805190602001908083835b60208310151561042b5780518252602082019150602081019050602083039250610406565b6001836020036101000a03801982511681845116808217855250505050505090500191505090815260200160405180910390206001015491509150915091565b6000809054906101000a900473ffffffffffffffffffffffffffffffffffffffff1673ffffffffffffffffffffffffffffffffffffffff163373ffffffffffffffffffffffffffffffffffffffff161415156104c657600080fd5b60006001836040518082805190602001908083835b60208310151561050057805182526020820191506020810190506020830392506104db565b6001836020036101000a0380198251168184511680821785525050505050509050019150509081526020016040518091039020905060018160000160006101000a81548160ff021916908315150217905550428160010181905550818160020181905550505050565b6001826040518082805190602001908083835b6020831015156105a1578051825260208201915060208101905060208303925061057c565b6001836020036101000a038019825116818451168082178552505050505050905001915050908152602001604051809103902060020154816040516020018082805190602001908083835b60208310151561061157805182526020820191506020810190506020830392506105ec565b6001836020036101000a038019825116818451168082178552505050505050905001915050604051602081830303815290604052805190602001206001900414151561065c57600080fd5b60006001836040518082805190602001908083835b6020831015156106965780518252602082019150602081019050602083039250610671565b6001836020036101000a038019825116818451168082178552505050505050905001915050908152602001604051809103902060000160006101000a81548160ff021916908315150217905550505056fea165627a7a72305820ffcd812f6359ef8da0fe25ca5c1d2824a1b45c54a41485ebcbe5cfa24bff2d700029",
  "source": "pragma solidity ^0.5.0;\ncontract ConsensusContract {\n  struct Consensus {\n        bool consensus_status; //1 for consensus, 0 for no consensus\n        uint timestamp;\n        uint keyhash;\n    }\n  address owner;\n  constructor() public{\n    owner=msg.sender;\n  }\n  modifier onlyOwner{\n    require(msg.sender == owner);\n    _;\n  }\n  mapping(string => Consensus) patients; //maps a patient_id to a consensus struct that represent the evolution of their consensus.\n  function createconsensus(string memory _patient_id, uint _keyhash ) onlyOwner public {// create a new consensus linked to a patient on the chain.\n    Consensus storage newconsensus=patients[_patient_id];                     //only the deployer of the contract can create a new consensus.\n    newconsensus.consensus_status=true;\n    newconsensus.timestamp=now;\n    newconsensus.keyhash=_keyhash;\n  }\n  function getconsensus(string memory _patient_id) view public returns(bool, uint){\n    return (patients[_patient_id].consensus_status,patients[_patient_id].timestamp); //returns the consensus of a patient at  a given time.\n  }\n  function revokeconsensus(string memory _patient_id, string memory _key) public {\n    require(uint(keccak256(abi.encodePacked(_key)))==patients[_patient_id].keyhash);\n    patients[_patient_id].consensus_status=false;\n  }\n}\n",
  "sourcePath": "/Users/developer/Projects/bloodchain/truffle/contracts/ConsensusContract.sol",
  "compiler": {
    "name": "solc",
    "version": "0.5.0+commit.1d4f565a.Emscripten.clang"
  },
  "schemaVersion": "3.0.1",
  "updatedAt": "2019-02-14T19:29:31.213Z",
  "devdoc": {
    "methods": {}
  },
  "userdoc": {
    "methods": {}
  }
}