{
  "contractName": "Transactions",
  "abi": [
    {
      "constant": false,
      "inputs": [
        {
          "name": "_transaction_id",
          "type": "uint256"
        },
        {
          "name": "_dataHash",
          "type": "uint256"
        }
      ],
      "name": "addTransaction",
      "outputs": [],
      "payable": false,
      "stateMutability": "nonpayable",
      "type": "function",
      "signature": "0x3c7f63e7"
    },
    {
      "constant": true,
      "inputs": [
        {
          "name": "_transaction_id",
          "type": "uint256"
        }
      ],
      "name": "getHash",
      "outputs": [
        {
          "name": "",
          "type": "uint256"
        }
      ],
      "payable": false,
      "stateMutability": "view",
      "type": "function",
      "signature": "0x6b2fafa9"
    },
    {
      "constant": true,
      "inputs": [],
      "name": "getTransactionCount",
      "outputs": [
        {
          "name": "",
          "type": "uint256"
        }
      ],
      "payable": false,
      "stateMutability": "view",
      "type": "function",
      "signature": "0x2e7700f0"
    },
    {
      "constant": true,
      "inputs": [
        {
          "name": "index",
          "type": "uint256"
        }
      ],
      "name": "getTransaction",
      "outputs": [
        {
          "name": "",
          "type": "uint256"
        },
        {
          "name": "",
          "type": "uint256"
        }
      ],
      "payable": false,
      "stateMutability": "view",
      "type": "function",
      "signature": "0x33ea3dc8"
    }
  ],
  "bytecode": "0x608060405234801561001057600080fd5b506102d0806100206000396000f3fe608060405260043610610062576000357c0100000000000000000000000000000000000000000000000000000000900463ffffffff1680632e7700f01461006757806333ea3dc8146100925780633c7f63e7146100e85780636b2fafa91461012d575b600080fd5b34801561007357600080fd5b5061007c61017c565b6040518082815260200191505060405180910390f35b34801561009e57600080fd5b506100cb600480360360208110156100b557600080fd5b8101908080359060200190929190505050610189565b604051808381526020018281526020019250505060405180910390f35b3480156100f457600080fd5b5061012b6004803603604081101561010b57600080fd5b8101908080359060200190929190803590602001909291905050506101ce565b005b34801561013957600080fd5b506101666004803603602081101561015057600080fd5b8101908080359060200190929190505050610285565b6040518082815260200191505060405180910390f35b6000600280549050905090565b60008060006002600185038154811015156101a057fe5b9060005260206000200154905080600080838152602001908152602001600020600101549250925050915091565b600015156001600084815260200190815260200160002060009054906101000a900460ff16151514151561020157600080fd5b60008060008481526020019081526020016000209050828160000181905550818160010181905550600180600085815260200190815260200160002060006101000a81548160ff0219169083151502179055506002839080600181540180825580915050906001820390600052602060002001600090919290919091505550505050565b600080600083815260200190815260200160002060010154905091905056fea165627a7a72305820a226b80c517a2ef9b59f3063f1b877f8f150fa9eb33d0bf34c49b294d3b6c0520029",
  "source": "pragma solidity ^0.5.0;\n\ncontract Transactions {\n\n    struct Transaction {\n        uint transaction_id;\n        uint dataHash;\n    }\n\n    mapping (uint => Transaction) transactions;\n    mapping (uint => bool) alreadyExisting;\n    uint[] transactionArray;\n\n    // Creates a new transaction on the blockchain\n    function addTransaction(uint _transaction_id, uint _dataHash) public {\n        require(alreadyExisting[_transaction_id] == false);\n        Transaction storage newTransaction = transactions[_transaction_id];\n        newTransaction.transaction_id = _transaction_id;\n        newTransaction.dataHash = _dataHash;\n        alreadyExisting[_transaction_id] = true;\n        transactionArray.push(_transaction_id);\n    }\n\n    // Return the hash corresponding to a transaction_id.\n    function getHash(uint _transaction_id) view public returns (uint) {\n        return transactions[_transaction_id].dataHash;\n    }\n\n    // Returns the total number of transactions \n    function getTransactionCount() public view returns (uint) {\n        return transactionArray.length;\n    }\n\n    // Returns the transaction_id and the dataHash of the index'th transaction that was added.\n    function getTransaction(uint index) view public returns (uint, uint) {\n        uint tempTranstransaction_id = transactionArray[index - 1];\n        return (tempTranstransaction_id, transactions[tempTranstransaction_id].dataHash);\n    }\n\n}\n",
  "sourcePath": "/Users/developer/Projects/bloodchain/truffle/contracts/Transactions.sol",
  "compiler": {
    "name": "solc",
    "version": "0.5.0+commit.1d4f565a.Emscripten.clang"
  },
  "schemaVersion": "3.0.1",
  "updatedAt": "2019-02-14T19:29:31.407Z",
  "devdoc": {
    "methods": {}
  },
  "userdoc": {
    "methods": {}
  }
}